{
  "address": "0x7bbA48808B4278cD3f75eee8b624C5396cAeBBDb",
  "abi": [
    {
      "anonymous": false,
      "inputs": [
        {
          "indexed": false,
          "internalType": "address",
          "name": "oldAdmin",
          "type": "address"
        },
        {
          "indexed": false,
          "internalType": "address",
          "name": "newAdmin",
          "type": "address"
        }
      ],
      "name": "NewAdmin",
      "type": "event"
    },
    {
      "anonymous": false,
      "inputs": [
        {
          "indexed": false,
          "internalType": "address",
          "name": "oldImplementation",
          "type": "address"
        },
        {
          "indexed": false,
          "internalType": "address",
          "name": "newImplementation",
          "type": "address"
        }
      ],
      "name": "NewImplementation",
      "type": "event"
    },
    {
      "anonymous": false,
      "inputs": [
        {
          "indexed": false,
          "internalType": "address",
          "name": "oldPendingAdmin",
          "type": "address"
        },
        {
          "indexed": false,
          "internalType": "address",
          "name": "newPendingAdmin",
          "type": "address"
        }
      ],
      "name": "NewPendingAdmin",
      "type": "event"
    },
    {
      "anonymous": false,
      "inputs": [
        {
          "indexed": false,
          "internalType": "uint256",
          "name": "id",
          "type": "uint256"
        }
      ],
      "name": "ProposalCanceled",
      "type": "event"
    },
    {
      "anonymous": false,
      "inputs": [
        {
          "indexed": false,
          "internalType": "uint256",
          "name": "id",
          "type": "uint256"
        },
        {
          "indexed": false,
          "internalType": "address",
          "name": "proposer",
          "type": "address"
        },
        {
          "indexed": false,
          "internalType": "address[]",
          "name": "targets",
          "type": "address[]"
        },
        {
          "indexed": false,
          "internalType": "uint256[]",
          "name": "values",
          "type": "uint256[]"
        },
        {
          "indexed": false,
          "internalType": "string[]",
          "name": "signatures",
          "type": "string[]"
        },
        {
          "indexed": false,
          "internalType": "bytes[]",
          "name": "calldatas",
          "type": "bytes[]"
        },
        {
          "indexed": false,
          "internalType": "uint256",
          "name": "startBlock",
          "type": "uint256"
        },
        {
          "indexed": false,
          "internalType": "uint256",
          "name": "endBlock",
          "type": "uint256"
        },
        {
          "indexed": false,
          "internalType": "string",
          "name": "description",
          "type": "string"
        }
      ],
      "name": "ProposalCreated",
      "type": "event"
    },
    {
      "anonymous": false,
      "inputs": [
        {
          "indexed": false,
          "internalType": "uint256",
          "name": "id",
          "type": "uint256"
        }
      ],
      "name": "ProposalExecuted",
      "type": "event"
    },
    {
      "anonymous": false,
      "inputs": [
        {
          "indexed": false,
          "internalType": "uint256",
          "name": "id",
          "type": "uint256"
        },
        {
          "indexed": false,
          "internalType": "uint256",
          "name": "eta",
          "type": "uint256"
        }
      ],
      "name": "ProposalQueued",
      "type": "event"
    },
    {
      "anonymous": false,
      "inputs": [
        {
          "indexed": false,
          "internalType": "uint256",
          "name": "oldProposalThreshold",
          "type": "uint256"
        },
        {
          "indexed": false,
          "internalType": "uint256",
          "name": "newProposalThreshold",
          "type": "uint256"
        }
      ],
      "name": "ProposalThresholdSet",
      "type": "event"
    },
    {
      "anonymous": false,
      "inputs": [
        {
          "indexed": true,
          "internalType": "address",
          "name": "voter",
          "type": "address"
        },
        {
          "indexed": false,
          "internalType": "uint256",
          "name": "proposalId",
          "type": "uint256"
        },
        {
          "indexed": false,
          "internalType": "uint8",
          "name": "support",
          "type": "uint8"
        },
        {
          "indexed": false,
          "internalType": "uint256",
          "name": "votes",
          "type": "uint256"
        },
        {
          "indexed": false,
          "internalType": "string",
          "name": "reason",
          "type": "string"
        }
      ],
      "name": "VoteCast",
      "type": "event"
    },
    {
      "anonymous": false,
      "inputs": [
        {
          "indexed": false,
          "internalType": "uint256",
          "name": "oldVotingDelay",
          "type": "uint256"
        },
        {
          "indexed": false,
          "internalType": "uint256",
          "name": "newVotingDelay",
          "type": "uint256"
        }
      ],
      "name": "VotingDelaySet",
      "type": "event"
    },
    {
      "anonymous": false,
      "inputs": [
        {
          "indexed": false,
          "internalType": "uint256",
          "name": "oldVotingPeriod",
          "type": "uint256"
        },
        {
          "indexed": false,
          "internalType": "uint256",
          "name": "newVotingPeriod",
          "type": "uint256"
        }
      ],
      "name": "VotingPeriodSet",
      "type": "event"
    },
    {
      "anonymous": false,
      "inputs": [
        {
          "indexed": false,
          "internalType": "address",
          "name": "account",
          "type": "address"
        },
        {
          "indexed": false,
          "internalType": "uint256",
          "name": "expiration",
          "type": "uint256"
        }
      ],
      "name": "WhitelistAccountExpirationSet",
      "type": "event"
    },
    {
      "anonymous": false,
      "inputs": [
        {
          "indexed": false,
          "internalType": "address",
          "name": "oldGuardian",
          "type": "address"
        },
        {
          "indexed": false,
          "internalType": "address",
          "name": "newGuardian",
          "type": "address"
        }
      ],
      "name": "WhitelistGuardianSet",
      "type": "event"
    },
    {
      "inputs": [],
      "name": "BALLOT_TYPEHASH",
      "outputs": [
        {
          "internalType": "bytes32",
          "name": "",
          "type": "bytes32"
        }
      ],
      "stateMutability": "view",
      "type": "function"
    },
    {
      "inputs": [],
      "name": "DOMAIN_TYPEHASH",
      "outputs": [
        {
          "internalType": "bytes32",
          "name": "",
          "type": "bytes32"
        }
      ],
      "stateMutability": "view",
      "type": "function"
    },
    {
      "inputs": [],
      "name": "MAX_PROPOSAL_THRESHOLD",
      "outputs": [
        {
          "internalType": "uint256",
          "name": "",
          "type": "uint256"
        }
      ],
      "stateMutability": "view",
      "type": "function"
    },
    {
      "inputs": [],
      "name": "MAX_VOTING_DELAY",
      "outputs": [
        {
          "internalType": "uint256",
          "name": "",
          "type": "uint256"
        }
      ],
      "stateMutability": "view",
      "type": "function"
    },
    {
      "inputs": [],
      "name": "MAX_VOTING_PERIOD",
      "outputs": [
        {
          "internalType": "uint256",
          "name": "",
          "type": "uint256"
        }
      ],
      "stateMutability": "view",
      "type": "function"
    },
    {
      "inputs": [],
      "name": "MIN_PROPOSAL_THRESHOLD",
      "outputs": [
        {
          "internalType": "uint256",
          "name": "",
          "type": "uint256"
        }
      ],
      "stateMutability": "view",
      "type": "function"
    },
    {
      "inputs": [],
      "name": "MIN_VOTING_DELAY",
      "outputs": [
        {
          "internalType": "uint256",
          "name": "",
          "type": "uint256"
        }
      ],
      "stateMutability": "view",
      "type": "function"
    },
    {
      "inputs": [],
      "name": "MIN_VOTING_PERIOD",
      "outputs": [
        {
          "internalType": "uint256",
          "name": "",
          "type": "uint256"
        }
      ],
      "stateMutability": "view",
      "type": "function"
    },
    {
      "inputs": [],
      "name": "_acceptAdmin",
      "outputs": [],
      "stateMutability": "nonpayable",
      "type": "function"
    },
    {
      "inputs": [
        {
          "internalType": "address",
          "name": "governorAlpha",
          "type": "address"
        }
      ],
      "name": "_initiate",
      "outputs": [],
      "stateMutability": "nonpayable",
      "type": "function"
    },
    {
      "inputs": [
        {
          "internalType": "address",
          "name": "newPendingAdmin",
          "type": "address"
        }
      ],
      "name": "_setPendingAdmin",
      "outputs": [],
      "stateMutability": "nonpayable",
      "type": "function"
    },
    {
      "inputs": [
        {
          "internalType": "uint256",
          "name": "newProposalThreshold",
          "type": "uint256"
        }
      ],
      "name": "_setProposalThreshold",
      "outputs": [],
      "stateMutability": "nonpayable",
      "type": "function"
    },
    {
      "inputs": [
        {
          "internalType": "uint256",
          "name": "newVotingDelay",
          "type": "uint256"
        }
      ],
      "name": "_setVotingDelay",
      "outputs": [],
      "stateMutability": "nonpayable",
      "type": "function"
    },
    {
      "inputs": [
        {
          "internalType": "uint256",
          "name": "newVotingPeriod",
          "type": "uint256"
        }
      ],
      "name": "_setVotingPeriod",
      "outputs": [],
      "stateMutability": "nonpayable",
      "type": "function"
    },
    {
      "inputs": [
        {
          "internalType": "address",
          "name": "account",
          "type": "address"
        },
        {
          "internalType": "uint256",
          "name": "expiration",
          "type": "uint256"
        }
      ],
      "name": "_setWhitelistAccountExpiration",
      "outputs": [],
      "stateMutability": "nonpayable",
      "type": "function"
    },
    {
      "inputs": [
        {
          "internalType": "address",
          "name": "account",
          "type": "address"
        }
      ],
      "name": "_setWhitelistGuardian",
      "outputs": [],
      "stateMutability": "nonpayable",
      "type": "function"
    },
    {
      "inputs": [],
      "name": "admin",
      "outputs": [
        {
          "internalType": "address",
          "name": "",
          "type": "address"
        }
      ],
      "stateMutability": "view",
      "type": "function"
    },
    {
      "inputs": [
        {
          "internalType": "uint256",
          "name": "proposalId",
          "type": "uint256"
        }
      ],
      "name": "cancel",
      "outputs": [],
      "stateMutability": "nonpayable",
      "type": "function"
    },
    {
      "inputs": [
        {
          "internalType": "uint256",
          "name": "proposalId",
          "type": "uint256"
        },
        {
          "internalType": "uint8",
          "name": "support",
          "type": "uint8"
        }
      ],
      "name": "castVote",
      "outputs": [],
      "stateMutability": "nonpayable",
      "type": "function"
    },
    {
      "inputs": [
        {
          "internalType": "uint256",
          "name": "proposalId",
          "type": "uint256"
        },
        {
          "internalType": "uint8",
          "name": "support",
          "type": "uint8"
        },
        {
          "internalType": "uint8",
          "name": "v",
          "type": "uint8"
        },
        {
          "internalType": "bytes32",
          "name": "r",
          "type": "bytes32"
        },
        {
          "internalType": "bytes32",
          "name": "s",
          "type": "bytes32"
        }
      ],
      "name": "castVoteBySig",
      "outputs": [],
      "stateMutability": "nonpayable",
      "type": "function"
    },
    {
      "inputs": [
        {
          "internalType": "uint256",
          "name": "proposalId",
          "type": "uint256"
        },
        {
          "internalType": "uint8",
          "name": "support",
          "type": "uint8"
        },
        {
          "internalType": "string",
          "name": "reason",
          "type": "string"
        }
      ],
      "name": "castVoteWithReason",
      "outputs": [],
      "stateMutability": "nonpayable",
      "type": "function"
    },
    {
      "inputs": [],
      "name": "comp",
      "outputs": [
        {
          "internalType": "contract CompInterface",
          "name": "",
          "type": "address"
        }
      ],
      "stateMutability": "view",
      "type": "function"
    },
    {
      "inputs": [
        {
          "internalType": "uint256",
          "name": "proposalId",
          "type": "uint256"
        }
      ],
      "name": "execute",
      "outputs": [],
      "stateMutability": "payable",
      "type": "function"
    },
    {
      "inputs": [
        {
          "internalType": "uint256",
          "name": "proposalId",
          "type": "uint256"
        }
      ],
      "name": "getActions",
      "outputs": [
        {
          "internalType": "address[]",
          "name": "targets",
          "type": "address[]"
        },
        {
          "internalType": "uint256[]",
          "name": "values",
          "type": "uint256[]"
        },
        {
          "internalType": "string[]",
          "name": "signatures",
          "type": "string[]"
        },
        {
          "internalType": "bytes[]",
          "name": "calldatas",
          "type": "bytes[]"
        }
      ],
      "stateMutability": "view",
      "type": "function"
    },
    {
      "inputs": [
        {
          "internalType": "uint256",
          "name": "proposalId",
          "type": "uint256"
        },
        {
          "internalType": "address",
          "name": "voter",
          "type": "address"
        }
      ],
      "name": "getReceipt",
      "outputs": [
        {
          "components": [
            {
              "internalType": "bool",
              "name": "hasVoted",
              "type": "bool"
            },
            {
              "internalType": "uint8",
              "name": "support",
              "type": "uint8"
            },
            {
              "internalType": "uint96",
              "name": "votes",
              "type": "uint96"
            }
          ],
          "internalType": "struct GovernorBravoDelegateStorageV1.Receipt",
          "name": "",
          "type": "tuple"
        }
      ],
      "stateMutability": "view",
      "type": "function"
    },
    {
      "inputs": [],
      "name": "implementation",
      "outputs": [
        {
          "internalType": "address",
          "name": "",
          "type": "address"
        }
      ],
      "stateMutability": "view",
      "type": "function"
    },
    {
      "inputs": [],
      "name": "initialProposalId",
      "outputs": [
        {
          "internalType": "uint256",
          "name": "",
          "type": "uint256"
        }
      ],
      "stateMutability": "view",
      "type": "function"
    },
    {
      "inputs": [
        {
          "internalType": "address",
          "name": "timelock_",
          "type": "address"
        },
        {
          "internalType": "address",
          "name": "comp_",
          "type": "address"
        },
        {
          "internalType": "uint256",
          "name": "votingPeriod_",
          "type": "uint256"
        },
        {
          "internalType": "uint256",
          "name": "votingDelay_",
          "type": "uint256"
        },
        {
          "internalType": "uint256",
          "name": "proposalThreshold_",
          "type": "uint256"
        }
      ],
      "name": "initialize",
      "outputs": [],
      "stateMutability": "nonpayable",
      "type": "function"
    },
    {
      "inputs": [
        {
          "internalType": "address",
          "name": "account",
          "type": "address"
        }
      ],
      "name": "isWhitelisted",
      "outputs": [
        {
          "internalType": "bool",
          "name": "",
          "type": "bool"
        }
      ],
      "stateMutability": "view",
      "type": "function"
    },
    {
      "inputs": [
        {
          "internalType": "address",
          "name": "",
          "type": "address"
        }
      ],
      "name": "latestProposalIds",
      "outputs": [
        {
          "internalType": "uint256",
          "name": "",
          "type": "uint256"
        }
      ],
      "stateMutability": "view",
      "type": "function"
    },
    {
      "inputs": [],
      "name": "name",
      "outputs": [
        {
          "internalType": "string",
          "name": "",
          "type": "string"
        }
      ],
      "stateMutability": "view",
      "type": "function"
    },
    {
      "inputs": [],
      "name": "pendingAdmin",
      "outputs": [
        {
          "internalType": "address",
          "name": "",
          "type": "address"
        }
      ],
      "stateMutability": "view",
      "type": "function"
    },
    {
      "inputs": [],
      "name": "proposalCount",
      "outputs": [
        {
          "internalType": "uint256",
          "name": "",
          "type": "uint256"
        }
      ],
      "stateMutability": "view",
      "type": "function"
    },
    {
      "inputs": [],
      "name": "proposalMaxOperations",
      "outputs": [
        {
          "internalType": "uint256",
          "name": "",
          "type": "uint256"
        }
      ],
      "stateMutability": "view",
      "type": "function"
    },
    {
      "inputs": [],
      "name": "proposalThreshold",
      "outputs": [
        {
          "internalType": "uint256",
          "name": "",
          "type": "uint256"
        }
      ],
      "stateMutability": "view",
      "type": "function"
    },
    {
      "inputs": [
        {
          "internalType": "uint256",
          "name": "",
          "type": "uint256"
        }
      ],
      "name": "proposals",
      "outputs": [
        {
          "internalType": "uint256",
          "name": "id",
          "type": "uint256"
        },
        {
          "internalType": "address",
          "name": "proposer",
          "type": "address"
        },
        {
          "internalType": "uint256",
          "name": "eta",
          "type": "uint256"
        },
        {
          "internalType": "uint256",
          "name": "startBlock",
          "type": "uint256"
        },
        {
          "internalType": "uint256",
          "name": "endBlock",
          "type": "uint256"
        },
        {
          "internalType": "uint256",
          "name": "forVotes",
          "type": "uint256"
        },
        {
          "internalType": "uint256",
          "name": "againstVotes",
          "type": "uint256"
        },
        {
          "internalType": "uint256",
          "name": "abstainVotes",
          "type": "uint256"
        },
        {
          "internalType": "bool",
          "name": "canceled",
          "type": "bool"
        },
        {
          "internalType": "bool",
          "name": "executed",
          "type": "bool"
        }
      ],
      "stateMutability": "view",
      "type": "function"
    },
    {
      "inputs": [
        {
          "internalType": "address[]",
          "name": "targets",
          "type": "address[]"
        },
        {
          "internalType": "uint256[]",
          "name": "values",
          "type": "uint256[]"
        },
        {
          "internalType": "string[]",
          "name": "signatures",
          "type": "string[]"
        },
        {
          "internalType": "bytes[]",
          "name": "calldatas",
          "type": "bytes[]"
        },
        {
          "internalType": "string",
          "name": "description",
          "type": "string"
        }
      ],
      "name": "propose",
      "outputs": [
        {
          "internalType": "uint256",
          "name": "",
          "type": "uint256"
        }
      ],
      "stateMutability": "nonpayable",
      "type": "function"
    },
    {
      "inputs": [
        {
          "internalType": "uint256",
          "name": "proposalId",
          "type": "uint256"
        }
      ],
      "name": "queue",
      "outputs": [],
      "stateMutability": "nonpayable",
      "type": "function"
    },
    {
      "inputs": [],
      "name": "quorumVotes",
      "outputs": [
        {
          "internalType": "uint256",
          "name": "",
          "type": "uint256"
        }
      ],
      "stateMutability": "view",
      "type": "function"
    },
    {
      "inputs": [
        {
          "internalType": "uint256",
          "name": "proposalId",
          "type": "uint256"
        }
      ],
      "name": "state",
      "outputs": [
        {
          "internalType": "enum GovernorBravoDelegateStorageV1.ProposalState",
          "name": "",
          "type": "uint8"
        }
      ],
      "stateMutability": "view",
      "type": "function"
    },
    {
      "inputs": [],
      "name": "timelock",
      "outputs": [
        {
          "internalType": "contract TimelockInterface",
          "name": "",
          "type": "address"
        }
      ],
      "stateMutability": "view",
      "type": "function"
    },
    {
      "inputs": [],
      "name": "votingDelay",
      "outputs": [
        {
          "internalType": "uint256",
          "name": "",
          "type": "uint256"
        }
      ],
      "stateMutability": "view",
      "type": "function"
    },
    {
      "inputs": [],
      "name": "votingPeriod",
      "outputs": [
        {
          "internalType": "uint256",
          "name": "",
          "type": "uint256"
        }
      ],
      "stateMutability": "view",
      "type": "function"
    },
    {
      "inputs": [
        {
          "internalType": "address",
          "name": "",
          "type": "address"
        }
      ],
      "name": "whitelistAccountExpirations",
      "outputs": [
        {
          "internalType": "uint256",
          "name": "",
          "type": "uint256"
        }
      ],
      "stateMutability": "view",
      "type": "function"
    },
    {
      "inputs": [],
      "name": "whitelistGuardian",
      "outputs": [
        {
          "internalType": "address",
          "name": "",
          "type": "address"
        }
      ],
      "stateMutability": "view",
      "type": "function"
    }
  ],
  "transactionHash": "0xe7ca37575b3cba70b39a937e8e7603c4ae1e358ce291a626d13da44031149feb",
  "args": [],
  "numDeployments": 1,
  "solcInputHash": "bde72212ff9cf6e188075c4bc58f8382",
  "bytecode": "0x608060405234801561001057600080fd5b50614076806100206000396000f3fe6080604052600436106102725760003560e01c80635c60da1b1161014f578063d33219b4116100c1578063e48083fe1161007a578063e48083fe14610940578063e9c714f214610955578063f851a4401461096a578063f9d28b801461098a578063fc4eee42146109aa578063fe0d94c1146109c057600080fd5b8063d33219b4146107cc578063da35c664146107ec578063da95691a14610802578063ddf0b00914610822578063deaaa7cc14610842578063e23a9a521461087657600080fd5b8063a64e024a11610113578063a64e024a1461072a578063b112626314610740578063b58131b014610756578063b71d1a0c1461076c578063c5a8425d1461078c578063d13f90b4146107ac57600080fd5b80635c60da1b14610698578063791f5d23146106b85780637b3c71d3146106d55780637bdbe4d0146106f5578063995333651461070a57600080fd5b806325fd935a116101e85780633af32abf116101ac5780633af32abf146105a35780633bccf4fd146105eb5780633e4f49e61461060b57806340e58ee5146106385780634d6733d214610658578063567813881461067857600080fd5b806325fd935a146104f25780632678224714610510578063328dd9821461053057806338bd0dda146105605780633932abb11461058d57600080fd5b806317977c611161023a57806317977c611461041e57806317ba1b8b1461044b5780631dfb1b5a1461046b57806320606b701461048b578063215809ca146104bf57806324bc1a64146104d457600080fd5b8063013cf08b1461027757806302a251a31461035057806306fdde03146103745780630ea2d98c146103c4578063109d0af8146103e6575b600080fd5b34801561028357600080fd5b506102f5610292366004613522565b600a60208190526000918252604090912080546001820154600283015460078401546008850154600986015496860154600b870154600c9097015495976001600160a01b0390951696939592949193919290919060ff808216916101009004168a565b604080519a8b526001600160a01b0390991660208b0152978901969096526060880194909452608087019290925260a086015260c085015260e084015215156101008301521515610120820152610140015b60405180910390f35b34801561035c57600080fd5b5061036660045481565b604051908152602001610347565b34801561038057600080fd5b506103b760405180604001604052806017815260200176436f6d706f756e6420476f7665726e6f7220427261766f60481b81525081565b6040516103479190613597565b3480156103d057600080fd5b506103e46103df366004613522565b6109d3565b005b3480156103f257600080fd5b50600954610406906001600160a01b031681565b6040516001600160a01b039091168152602001610347565b34801561042a57600080fd5b506103666104393660046135c6565b600b6020526000908152604090205481565b34801561045757600080fd5b506103e4610466366004613522565b610b0a565b34801561047757600080fd5b506103e4610486366004613522565b610c52565b34801561049757600080fd5b506103667f8cad95687ba82c2ce50e74f7b754645e5117c3a5bec8151c0726d5857980a86681565b3480156104cb57600080fd5b50610366603c81565b3480156104e057600080fd5b506103666954b40b1f852bda00000081565b3480156104fe57600080fd5b5061036669152d02c7e14af680000081565b34801561051c57600080fd5b50600154610406906001600160a01b031681565b34801561053c57600080fd5b5061055061054b366004613522565b610d79565b60405161034794939291906136aa565b34801561056c57600080fd5b5061036661057b3660046135c6565b600c6020526000908152604090205481565b34801561059957600080fd5b5061036660035481565b3480156105af57600080fd5b506105db6105be3660046135c6565b6001600160a01b03166000908152600c6020526040902054421090565b6040519015158152602001610347565b3480156105f757600080fd5b506103e4610606366004613713565b61100a565b34801561061757600080fd5b5061062b610626366004613522565b611287565b6040516103479190613777565b34801561064457600080fd5b506103e4610653366004613522565b61143d565b34801561066457600080fd5b506103e461067336600461379f565b61188d565b34801561068457600080fd5b506103e46106933660046137c9565b611973565b3480156106a457600080fd5b50600254610406906001600160a01b031681565b3480156106c457600080fd5b50610366683635c9adc5dea0000081565b3480156106e157600080fd5b506103e46106f03660046137f5565b6119de565b34801561070157600080fd5b50610366600a81565b34801561071657600080fd5b506103e46107253660046135c6565b611a2e565b34801561073657600080fd5b506103666103e881565b34801561074c57600080fd5b50610366619d8081565b34801561076257600080fd5b5061036660055481565b34801561077857600080fd5b506103e46107873660046135c6565b611afb565b34801561079857600080fd5b50600d54610406906001600160a01b031681565b3480156107b857600080fd5b506103e46107c736600461387c565b611bc2565b3480156107d857600080fd5b50600854610406906001600160a01b031681565b3480156107f857600080fd5b5061036660075481565b34801561080e57600080fd5b5061036661081d366004613b97565b611edf565b34801561082e57600080fd5b506103e461083d366004613522565b61257e565b34801561084e57600080fd5b506103667f150214d74d59b7d1e90c73fc22ef3d991dd0a76b046543d4d80ab92d2a50328f81565b34801561088257600080fd5b50610910610891366004613c69565b6040805160608101825260008082526020820181905291810191909152506000918252600a602090815260408084206001600160a01b03939093168452600d9092018152918190208151606081018352905460ff8082161515835261010082041693820193909352620100009092046001600160601b03169082015290565b6040805182511515815260208084015160ff1690820152918101516001600160601b031690820152606001610347565b34801561094c57600080fd5b50610366600181565b34801561096157600080fd5b506103e461288a565b34801561097657600080fd5b50600054610406906001600160a01b031681565b34801561099657600080fd5b506103e46109a53660046135c6565b6129b4565b3480156109b657600080fd5b5061036660065481565b6103e46109ce366004613522565b612b50565b6000546001600160a01b03163314610a465760405162461bcd60e51b815260206004820152602b60248201527f476f7665726e6f72427261766f3a3a5f736574566f74696e67506572696f643a60448201526a2061646d696e206f6e6c7960a81b60648201526084015b60405180910390fd5b603c8110158015610a5957506103e88111155b610ac45760405162461bcd60e51b815260206004820152603660248201527f476f7665726e6f72427261766f3a3a5f736574566f74696e67506572696f643a604482015275081a5b9d985b1a59081d9bdd1a5b99c81c195c9a5bd960521b6064820152608401610a3d565b600480549082905560408051828152602081018490527f7e3f7f0708a84de9203036abaa450dccc85ad5ff52f78c170f3edb55cf5e882891015b60405180910390a15050565b6000546001600160a01b03163314610b7d5760405162461bcd60e51b815260206004820152603060248201527f476f7665726e6f72427261766f3a3a5f73657450726f706f73616c546872657360448201526f686f6c643a2061646d696e206f6e6c7960801b6064820152608401610a3d565b683635c9adc5dea000008110158015610ba0575069152d02c7e14af68000008111155b610c14576040805162461bcd60e51b81526020600482015260248101919091527f476f7665726e6f72427261766f3a3a5f73657450726f706f73616c546872657360448201527f686f6c643a20696e76616c69642070726f706f73616c207468726573686f6c646064820152608401610a3d565b600580549082905560408051828152602081018490527fccb45da8d5717e6c4544694297c4ba5cf151d455c9bb0ed4fc7a38411bc054619101610afe565b6000546001600160a01b03163314610cbf5760405162461bcd60e51b815260206004820152602a60248201527f476f7665726e6f72427261766f3a3a5f736574566f74696e6744656c61793a2060448201526961646d696e206f6e6c7960b01b6064820152608401610a3d565b60018110158015610cd25750619d808111155b610d3b5760405162461bcd60e51b815260206004820152603460248201527f476f7665726e6f72427261766f3a3a5f736574566f74696e6744656c61793a20604482015273696e76616c696420766f74696e672064656c617960601b6064820152608401610a3d565b600380549082905560408051828152602081018490527fc565b045403dc03c2eea82b81a0465edad9e2e7fc4d97e11421c209da93d7a939101610afe565b6060806060806000600a600087815260200190815260200160002090508060030181600401826005018360060183805480602002602001604051908101604052809291908181526020018280548015610dfb57602002820191906000526020600020905b81546001600160a01b03168152600190910190602001808311610ddd575b5050505050935082805480602002602001604051908101604052809291908181526020018280548015610e4d57602002820191906000526020600020905b815481526020019060010190808311610e39575b5050505050925081805480602002602001604051908101604052809291908181526020016000905b82821015610f21578382906000526020600020018054610e9490613c8c565b80601f0160208091040260200160405190810160405280929190818152602001828054610ec090613c8c565b8015610f0d5780601f10610ee257610100808354040283529160200191610f0d565b820191906000526020600020905b815481529060010190602001808311610ef057829003601f168201915b505050505081526020019060010190610e75565b50505050915080805480602002602001604051908101604052809291908181526020016000905b82821015610ff4578382906000526020600020018054610f6790613c8c565b80601f0160208091040260200160405190810160405280929190818152602001828054610f9390613c8c565b8015610fe05780601f10610fb557610100808354040283529160200191610fe0565b820191906000526020600020905b815481529060010190602001808311610fc357829003601f168201915b505050505081526020019060010190610f48565b5050505090509450945094509450509193509193565b6040805180820182526017815276436f6d706f756e6420476f7665726e6f7220427261766f60481b60209182015281517f8cad95687ba82c2ce50e74f7b754645e5117c3a5bec8151c0726d5857980a866818301527f3d9e905142ff365fb68ce863f26a44f5583cf7ec11bcde450555f50b7e1b561481840152466060820152306080808301919091528351808303909101815260a0820184528051908301207f150214d74d59b7d1e90c73fc22ef3d991dd0a76b046543d4d80ab92d2a50328f60c083015260e0820189905260ff8816610100808401919091528451808403909101815261012083019094528351939092019290922061190160f01b6101408401526101428301829052610162830181905290916000906101820160408051601f198184030181528282528051602091820120600080855291840180845281905260ff8a169284019290925260608301889052608083018790529092509060019060a0016020604051602081039080840390855afa158015611191573d6000803e3d6000fd5b5050604051601f1901519150506001600160a01b03811661120c5760405162461bcd60e51b815260206004820152602f60248201527f476f7665726e6f72427261766f3a3a63617374566f746542795369673a20696e60448201526e76616c6964207369676e617475726560881b6064820152608401610a3d565b806001600160a01b03167fb8e138887d0aa13bab447e82de9d5c1777041ecd21ca36ba824ff1e6c07ddda48a8a611244858e8e612d8d565b6040805193845260ff90921660208401526001600160601b03169082015260806060820181905260009082015260a00160405180910390a2505050505050505050565b6000816007541015801561129c575060065482115b6112fa5760405162461bcd60e51b815260206004820152602960248201527f476f7665726e6f72427261766f3a3a73746174653a20696e76616c69642070726044820152681bdc1bdcd85b081a5960ba1b6064820152608401610a3d565b6000828152600a60205260409020600c81015460ff161561131e5750600292915050565b806007015443116113325750600092915050565b806008015443116113465750600192915050565b80600a0154816009015411158061136a57506954b40b1f852bda0000008160090154105b156113785750600392915050565b600281015461138a5750600492915050565b600c810154610100900460ff16156113a55750600792915050565b6002810154600854604080516360d143f160e11b8152905161141f93926001600160a01b03169163c1a287e29160048083019260209291908290030181865afa1580156113f6573d6000803e3d6000fd5b505050506040513d601f19601f8201168201806040525081019061141a9190613cc1565b61306c565b421061142e5750600692915050565b50600592915050565b50919050565b600761144882611287565b600781111561145957611459613761565b14156114c65760405162461bcd60e51b815260206004820152603660248201527f476f7665726e6f72427261766f3a3a63616e63656c3a2063616e6e6f742063616044820152751b98d95b08195e1958dd5d1959081c1c9bdc1bdcd85b60521b6064820152608401610a3d565b6000818152600a6020526040902060018101546001600160a01b031633146117315760018101546001600160a01b03166000908152600c602052604090205442101561162a576005546009546001838101546001600160a01b039283169263782d6fe1929116906115389043906130c6565b6040516001600160e01b031960e085901b1681526001600160a01b0390921660048301526024820152604401602060405180830381865afa158015611581573d6000803e3d6000fd5b505050506040513d601f19601f820116820180604052508101906115a59190613cda565b6001600160601b03161080156115c55750600d546001600160a01b031633145b6116255760405162461bcd60e51b815260206004820152602b60248201527f476f7665726e6f72427261766f3a3a63616e63656c3a2077686974656c69737460448201526a32b210383937b837b9b2b960a91b6064820152608401610a3d565b611731565b6005546009546001838101546001600160a01b039283169263782d6fe1929116906116569043906130c6565b6040516001600160e01b031960e085901b1681526001600160a01b0390921660048301526024820152604401602060405180830381865afa15801561169f573d6000803e3d6000fd5b505050506040513d601f19601f820116820180604052508101906116c39190613cda565b6001600160601b0316106117315760405162461bcd60e51b815260206004820152602f60248201527f476f7665726e6f72427261766f3a3a63616e63656c3a2070726f706f7365722060448201526e18589bdd99481d1a1c995cda1bdb19608a1b6064820152608401610a3d565b600c8101805460ff1916600117905560005b600382015481101561185c576008546003830180546001600160a01b039092169163591fcdfe91908490811061177b5761177b613d03565b6000918252602090912001546004850180546001600160a01b0390921691859081106117a9576117a9613d03565b90600052602060002001548560050185815481106117c9576117c9613d03565b906000526020600020018660060186815481106117e8576117e8613d03565b9060005260206000200187600201546040518663ffffffff1660e01b8152600401611817959493929190613dba565b600060405180830381600087803b15801561183157600080fd5b505af1158015611845573d6000803e3d6000fd5b50505050808061185490613e1c565b915050611743565b506040518281527f789cf55be980739dad1d0699b93b58e806b51c9d96619bfa8fe0a28abaa7b30c90602001610afe565b6000546001600160a01b03163314806118b05750600d546001600160a01b031633145b6119225760405162461bcd60e51b815260206004820152603960248201527f476f7665726e6f72427261766f3a3a5f73657457686974656c6973744163636f60448201527f756e7445787069726174696f6e3a2061646d696e206f6e6c79000000000000006064820152608401610a3d565b6001600160a01b0382166000818152600c6020908152604091829020849055815192835282018390527f4e7b7545bc5744d0e30425959f4687475774b6c7edad77d24cb51c7d967d45159101610afe565b337fb8e138887d0aa13bab447e82de9d5c1777041ecd21ca36ba824ff1e6c07ddda483836119a2848383612d8d565b6040805193845260ff90921660208401526001600160601b03169082015260806060820181905260009082015260a00160405180910390a25050565b337fb8e138887d0aa13bab447e82de9d5c1777041ecd21ca36ba824ff1e6c07ddda48585611a0d848383612d8d565b8686604051611a20959493929190613e37565b60405180910390a250505050565b6000546001600160a01b03163314611aa15760405162461bcd60e51b815260206004820152603060248201527f476f7665726e6f72427261766f3a3a5f73657457686974656c6973744775617260448201526f6469616e3a2061646d696e206f6e6c7960801b6064820152608401610a3d565b600d80546001600160a01b038381166001600160a01b031983168117909355604080519190921680825260208201939093527f80a07e73e552148844a9c216d9724212d609cfa54e9c1a2e97203bdd2c4ad3419101610afe565b6000546001600160a01b03163314611b685760405162461bcd60e51b815260206004820152602a60248201527f476f7665726e6f72427261766f3a5f73657450656e64696e6741646d696e3a2060448201526961646d696e206f6e6c7960b01b6064820152608401610a3d565b600180546001600160a01b038381166001600160a01b031983168117909355604080519190921680825260208201939093527fca4f2f25d0898edd99413412fb94012f9e54ec8142f9b093e7720646a95b16a99101610afe565b6008546001600160a01b031615611c375760405162461bcd60e51b815260206004820152603360248201527f476f7665726e6f72427261766f3a3a696e697469616c697a653a2063616e206f6044820152726e6c7920696e697469616c697a65206f6e636560681b6064820152608401610a3d565b6000546001600160a01b03163314611c9f5760405162461bcd60e51b815260206004820152602560248201527f476f7665726e6f72427261766f3a3a696e697469616c697a653a2061646d696e604482015264206f6e6c7960d81b6064820152608401610a3d565b6001600160a01b038516611cff5760405162461bcd60e51b8152602060048201526033602482015260008051602061402183398151915260448201527269642074696d656c6f636b206164647265737360681b6064820152608401610a3d565b6001600160a01b038416611d5b5760405162461bcd60e51b815260206004820152602f602482015260008051602061402183398151915260448201526e696420636f6d70206164647265737360881b6064820152608401610a3d565b603c8310158015611d6e57506103e88311155b611dc15760405162461bcd60e51b8152602060048201526030602482015260008051602061402183398151915260448201526f1a59081d9bdd1a5b99c81c195c9a5bd960821b6064820152608401610a3d565b60018210158015611dd45750619d808211155b611e265760405162461bcd60e51b815260206004820152602f602482015260008051602061402183398151915260448201526e696420766f74696e672064656c617960881b6064820152608401610a3d565b683635c9adc5dea000008110158015611e49575069152d02c7e14af68000008111155b611ea15760405162461bcd60e51b815260206004820152603560248201526000805160206140218339815191526044820152741a59081c1c9bdc1bdcd85b081d1a1c995cda1bdb19605a1b6064820152608401610a3d565b600880546001600160a01b039687166001600160a01b0319918216179091556009805495909616941693909317909355600455600391909155600555565b600060065460001415611f4e5760405162461bcd60e51b815260206004820152603160248201527f476f7665726e6f72427261766f3a3a70726f706f73653a20476f7665726e6f7260448201527020427261766f206e6f742061637469766560781b6064820152608401610a3d565b6005546009546001600160a01b031663782d6fe133611f6e4360016130c6565b6040516001600160e01b031960e085901b1681526001600160a01b0390921660048301526024820152604401602060405180830381865afa158015611fb7573d6000803e3d6000fd5b505050506040513d601f19601f82011682018060405250810190611fdb9190613cda565b6001600160601b03161180611ffe5750336000908152600c602052604090205442105b6120705760405162461bcd60e51b815260206004820152603f60248201527f476f7665726e6f72427261766f3a3a70726f706f73653a2070726f706f73657260448201527f20766f7465732062656c6f772070726f706f73616c207468726573686f6c64006064820152608401610a3d565b84518651148015612082575083518651145b801561208f575082518651145b61210f5760405162461bcd60e51b8152602060048201526044602482018190527f476f7665726e6f72427261766f3a3a70726f706f73653a2070726f706f73616c908201527f2066756e6374696f6e20696e666f726d6174696f6e206172697479206d69736d6064820152630c2e8c6d60e31b608482015260a401610a3d565b85516121725760405162461bcd60e51b815260206004820152602c60248201527f476f7665726e6f72427261766f3a3a70726f706f73653a206d7573742070726f60448201526b7669646520616374696f6e7360a01b6064820152608401610a3d565b600a865111156121d55760405162461bcd60e51b815260206004820152602860248201527f476f7665726e6f72427261766f3a3a70726f706f73653a20746f6f206d616e7960448201526720616374696f6e7360c01b6064820152608401610a3d565b336000908152600b602052604090205480156123565760006121f682611287565b9050600181600781111561220c5761220c613761565b14156122a65760405162461bcd60e51b815260206004820152605860248201527f476f7665726e6f72427261766f3a3a70726f706f73653a206f6e65206c69766560448201527f2070726f706f73616c207065722070726f706f7365722c20666f756e6420616e60648201527f20616c7265616479206163746976652070726f706f73616c0000000000000000608482015260a401610a3d565b60008160078111156122ba576122ba613761565b14156123545760405162461bcd60e51b815260206004820152605960248201527f476f7665726e6f72427261766f3a3a70726f706f73653a206f6e65206c69766560448201527f2070726f706f73616c207065722070726f706f7365722c20666f756e6420616e60648201527f20616c72656164792070656e64696e672070726f706f73616c00000000000000608482015260a401610a3d565b505b60006123644360035461306c565b905060006123748260045461306c565b60078054919250600061238683613e1c565b90915550506007546000818152600a602052604090208054156123ff5760405162461bcd60e51b815260206004820152602b60248201527f476f7665726e6f72427261766f3a3a70726f706f73653a2050726f706f73616c60448201526a24a21031b7b63639b4b7b760a91b6064820152608401610a3d565b8181556001810180546001600160a01b03191633179055600060028201558a5161243290600383019060208e01906132d1565b50895161244890600483019060208d0190613336565b50885161245e90600583019060208c0190613371565b50875161247490600683019060208b01906133ca565b5083816007018190555082816008018190555060008160090181905550600081600a0181905550600081600b0181905550600081600c0160006101000a81548160ff021916908315150217905550600081600c0160016101000a81548160ff0219169083151502179055508060000154600b60008360010160009054906101000a90046001600160a01b03166001600160a01b03166001600160a01b03168152602001908152602001600020819055507f7d84a6263ae0d98d3329bd7b46bb4e8d6f98cd35a7adb45c274c8b7fd5ebd5e08160000154338d8d8d8d8a8a8f60405161256799989796959493929190613e87565b60405180910390a1549a9950505050505050505050565b600461258982611287565b600781111561259a5761259a613761565b1461261b5760405162461bcd60e51b8152602060048201526044602482018190527f476f7665726e6f72427261766f3a3a71756575653a2070726f706f73616c2063908201527f616e206f6e6c79206265207175657565642069662069742069732073756363656064820152631959195960e21b608482015260a401610a3d565b6000818152600a602090815260408083206008548251630d48571f60e31b8152925191949361267a9342936001600160a01b0390931692636a42b8f8926004808401939192918290030181865afa1580156113f6573d6000803e3d6000fd5b905060005b6003830154811015612844576128328360030182815481106126a3576126a3613d03565b6000918252602090912001546004850180546001600160a01b0390921691849081106126d1576126d1613d03565b90600052602060002001548560050184815481106126f1576126f1613d03565b90600052602060002001805461270690613c8c565b80601f016020809104026020016040519081016040528092919081815260200182805461273290613c8c565b801561277f5780601f106127545761010080835404028352916020019161277f565b820191906000526020600020905b81548152906001019060200180831161276257829003601f168201915b505050505086600601858154811061279957612799613d03565b9060005260206000200180546127ae90613c8c565b80601f01602080910402602001604051908101604052809291908181526020018280546127da90613c8c565b80156128275780601f106127fc57610100808354040283529160200191612827565b820191906000526020600020905b81548152906001019060200180831161280a57829003601f168201915b50505050508661311a565b8061283c81613e1c565b91505061267f565b506002820181905560408051848152602081018390527f9a2e42fd6722813d69113e7d0079d3d940171428df7373df9c7f7617cfda2892910160405180910390a1505050565b6001546001600160a01b0316331480156128a357503315155b6129065760405162461bcd60e51b815260206004820152602e60248201527f476f7665726e6f72427261766f3a5f61636365707441646d696e3a2070656e6460448201526d696e672061646d696e206f6e6c7960901b6064820152608401610a3d565b60008054600180546001600160a01b038082166001600160a01b031980861682179096559490911690915560408051919092168082526020820184905292917ff9ffabca9c8276e99321725bcb43fb076a6c66a54b7f21c4e8146d8519b417dc910160405180910390a1600154604080516001600160a01b03808516825290921660208301527fca4f2f25d0898edd99413412fb94012f9e54ec8142f9b093e7720646a95b16a99101610afe565b6000546001600160a01b03163314612a1a5760405162461bcd60e51b8152602060048201526024808201527f476f7665726e6f72427261766f3a3a5f696e6974696174653a2061646d696e206044820152636f6e6c7960e01b6064820152608401610a3d565b60065415612a835760405162461bcd60e51b815260206004820152603060248201527f476f7665726e6f72427261766f3a3a5f696e6974696174653a2063616e206f6e60448201526f6c7920696e697469617465206f6e636560801b6064820152608401610a3d565b806001600160a01b031663da35c6646040518163ffffffff1660e01b81526004016020604051808303816000875af1158015612ac3573d6000803e3d6000fd5b505050506040513d601f19601f82011682018060405250810190612ae79190613cc1565b600781905560065560085460408051630e18b68160e01b815290516001600160a01b0390921691630e18b6819160048082019260009290919082900301818387803b158015612b3557600080fd5b505af1158015612b49573d6000803e3d6000fd5b5050505050565b6005612b5b82611287565b6007811115612b6c57612b6c613761565b14612bed5760405162461bcd60e51b815260206004820152604560248201527f476f7665726e6f72427261766f3a3a657865637574653a2070726f706f73616c60448201527f2063616e206f6e6c7920626520657865637574656420696620697420697320716064820152641d595d595960da1b608482015260a401610a3d565b6000818152600a60205260408120600c8101805461ff001916610100179055905b6003820154811015612d5c576008546004830180546001600160a01b0390921691630825f38f919084908110612c4657612c46613d03565b9060005260206000200154846003018481548110612c6657612c66613d03565b6000918252602090912001546004860180546001600160a01b039092169186908110612c9457612c94613d03565b9060005260206000200154866005018681548110612cb457612cb4613d03565b90600052602060002001876006018781548110612cd357612cd3613d03565b9060005260206000200188600201546040518763ffffffff1660e01b8152600401612d02959493929190613dba565b60006040518083038185885af1158015612d20573d6000803e3d6000fd5b50505050506040513d6000823e601f3d908101601f19168201604052612d499190810190613f1f565b5080612d5481613e1c565b915050612c0e565b506040518281527f712ae1383f79ac853f8d882153778e0260ef8f03b504e2866e0593e04d2b291f90602001610afe565b60006001612d9a84611287565b6007811115612dab57612dab613761565b14612e125760405162461bcd60e51b815260206004820152603160248201527f476f7665726e6f72427261766f3a3a63617374566f7465496e7465726e616c3a604482015270081d9bdd1a5b99c81a5cc818db1bdcd959607a1b6064820152608401610a3d565b60028260ff161115612e815760405162461bcd60e51b815260206004820152603260248201527f476f7665726e6f72427261766f3a3a63617374566f7465496e7465726e616c3a60448201527120696e76616c696420766f7465207479706560701b6064820152608401610a3d565b6000838152600a602090815260408083206001600160a01b0388168452600d8101909252909120805460ff1615612f175760405162461bcd60e51b815260206004820152603460248201527f476f7665726e6f72427261766f3a3a63617374566f7465496e7465726e616c3a604482015273081d9bdd195c88185b1c9958591e481d9bdd195960621b6064820152608401610a3d565b600954600783015460405163782d6fe160e01b81526000926001600160a01b03169163782d6fe191612f61918b916004016001600160a01b03929092168252602082015260400190565b602060405180830381865afa158015612f7e573d6000803e3d6000fd5b505050506040513d601f19601f82011682018060405250810190612fa29190613cda565b905060ff8516612fcd57612fc383600a0154826001600160601b031661306c565b600a840155613023565b8460ff1660011415612ffa57612ff08360090154826001600160601b031661306c565b6009840155613023565b8460ff16600214156130235761301d83600b0154826001600160601b031661306c565b600b8401555b81546001600160601b03821662010000026dffffffffffffffffffffffff00001960ff88166101000261ffff199093169290921760011791909116179091559150509392505050565b6000806130798385613f96565b9050838110156130bf5760405162461bcd60e51b81526020600482015260116024820152706164646974696f6e206f766572666c6f7760781b6044820152606401610a3d565b9392505050565b6000828211156131105760405162461bcd60e51b81526020600482015260156024820152747375627472616374696f6e20756e646572666c6f7760581b6044820152606401610a3d565b6130bf8284613fae565b6008546040516001600160a01b039091169063f2b06537906131489088908890889088908890602001613fc5565b604051602081830303815290604052805190602001206040518263ffffffff1660e01b815260040161317c91815260200190565b602060405180830381865afa158015613199573d6000803e3d6000fd5b505050506040513d601f19601f820116820180604052508101906131bd9190613ffe565b1561324e5760405162461bcd60e51b815260206004820152605560248201527f476f7665726e6f72427261766f3a3a71756575654f72526576657274496e746560448201527f726e616c3a206964656e746963616c2070726f706f73616c20616374696f6e20606482015274616c7265616479207175657565642061742065746160581b608482015260a401610a3d565b600854604051633a66f90160e01b81526001600160a01b0390911690633a66f901906132869088908890889088908890600401613fc5565b6020604051808303816000875af11580156132a5573d6000803e3d6000fd5b505050506040513d601f19601f820116820180604052508101906132c99190613cc1565b505050505050565b828054828255906000526020600020908101928215613326579160200282015b8281111561332657825182546001600160a01b0319166001600160a01b039091161782556020909201916001909101906132f1565b50613332929150613423565b5090565b828054828255906000526020600020908101928215613326579160200282015b82811115613326578251825591602001919060010190613356565b8280548282559060005260206000209081019282156133be579160200282015b828111156133be57825180516133ae918491602090910190613438565b5091602001919060010190613391565b506133329291506134ab565b828054828255906000526020600020908101928215613417579160200282015b828111156134175782518051613407918491602090910190613438565b50916020019190600101906133ea565b506133329291506134c8565b5b808211156133325760008155600101613424565b82805461344490613c8c565b90600052602060002090601f0160209004810192826134665760008555613326565b82601f1061347f57805160ff1916838001178555613326565b828001600101855582156133265791820182811115613326578251825591602001919060010190613356565b808211156133325760006134bf82826134e5565b506001016134ab565b808211156133325760006134dc82826134e5565b506001016134c8565b5080546134f190613c8c565b6000825580601f10613501575050565b601f01602090049060005260206000209081019061351f9190613423565b50565b60006020828403121561353457600080fd5b5035919050565b60005b8381101561355657818101518382015260200161353e565b83811115613565576000848401525b50505050565b6000815180845261358381602086016020860161353b565b601f01601f19169290920160200192915050565b6020815260006130bf602083018461356b565b80356001600160a01b03811681146135c157600080fd5b919050565b6000602082840312156135d857600080fd5b6130bf826135aa565b600081518084526020808501945080840160005b8381101561361a5781516001600160a01b0316875295820195908201906001016135f5565b509495945050505050565b600081518084526020808501945080840160005b8381101561361a57815187529582019590820190600101613639565b600081518084526020808501808196508360051b8101915082860160005b8581101561369d57828403895261368b84835161356b565b98850198935090840190600101613673565b5091979650505050505050565b6080815260006136bd60808301876135e1565b82810360208401526136cf8187613625565b905082810360408401526136e38186613655565b905082810360608401526136f78185613655565b979650505050505050565b803560ff811681146135c157600080fd5b600080600080600060a0868803121561372b57600080fd5b8535945061373b60208701613702565b935061374960408701613702565b94979396509394606081013594506080013592915050565b634e487b7160e01b600052602160045260246000fd5b602081016008831061379957634e487b7160e01b600052602160045260246000fd5b91905290565b600080604083850312156137b257600080fd5b6137bb836135aa565b946020939093013593505050565b600080604083850312156137dc57600080fd5b823591506137ec60208401613702565b90509250929050565b6000806000806060858703121561380b57600080fd5b8435935061381b60208601613702565b9250604085013567ffffffffffffffff8082111561383857600080fd5b818701915087601f83011261384c57600080fd5b81358181111561385b57600080fd5b88602082850101111561386d57600080fd5b95989497505060200194505050565b600080600080600060a0868803121561389457600080fd5b61389d866135aa565b94506138ab602087016135aa565b94979496505050506040830135926060810135926080909101359150565b634e487b7160e01b600052604160045260246000fd5b604051601f8201601f1916810167ffffffffffffffff81118282101715613908576139086138c9565b604052919050565b600067ffffffffffffffff82111561392a5761392a6138c9565b5060051b60200190565b600082601f83011261394557600080fd5b8135602061395a61395583613910565b6138df565b82815260059290921b8401810191818101908684111561397957600080fd5b8286015b8481101561399b5761398e816135aa565b835291830191830161397d565b509695505050505050565b600082601f8301126139b757600080fd5b813560206139c761395583613910565b82815260059290921b840181019181810190868411156139e657600080fd5b8286015b8481101561399b57803583529183019183016139ea565b600067ffffffffffffffff821115613a1b57613a1b6138c9565b50601f01601f191660200190565b6000613a3761395584613a01565b9050828152838383011115613a4b57600080fd5b828260208301376000602084830101529392505050565b600082601f830112613a7357600080fd5b6130bf83833560208501613a29565b600082601f830112613a9357600080fd5b81356020613aa361395583613910565b82815260059290921b84018101918181019086841115613ac257600080fd5b8286015b8481101561399b57803567ffffffffffffffff811115613ae65760008081fd5b613af48986838b0101613a62565b845250918301918301613ac6565b600082601f830112613b1357600080fd5b81356020613b2361395583613910565b82815260059290921b84018101918181019086841115613b4257600080fd5b8286015b8481101561399b57803567ffffffffffffffff811115613b665760008081fd5b8701603f81018913613b785760008081fd5b613b89898683013560408401613a29565b845250918301918301613b46565b600080600080600060a08688031215613baf57600080fd5b853567ffffffffffffffff80821115613bc757600080fd5b613bd389838a01613934565b96506020880135915080821115613be957600080fd5b613bf589838a016139a6565b95506040880135915080821115613c0b57600080fd5b613c1789838a01613a82565b94506060880135915080821115613c2d57600080fd5b613c3989838a01613b02565b93506080880135915080821115613c4f57600080fd5b50613c5c88828901613a62565b9150509295509295909350565b60008060408385031215613c7c57600080fd5b823591506137ec602084016135aa565b600181811c90821680613ca057607f821691505b6020821081141561143757634e487b7160e01b600052602260045260246000fd5b600060208284031215613cd357600080fd5b5051919050565b600060208284031215613cec57600080fd5b81516001600160601b03811681146130bf57600080fd5b634e487b7160e01b600052603260045260246000fd5b8054600090600181811c9080831680613d3357607f831692505b6020808410821415613d5557634e487b7160e01b600052602260045260246000fd5b838852818015613d6c5760018114613d8057613dae565b60ff19861689830152604089019650613dae565b876000528160002060005b86811015613da65781548b8201850152908501908301613d8b565b8a0183019750505b50505050505092915050565b60018060a01b038616815284602082015260a060408201526000613de160a0830186613d19565b8281036060840152613df38186613d19565b9150508260808301529695505050505050565b634e487b7160e01b600052601160045260246000fd5b6000600019821415613e3057613e30613e06565b5060010190565b85815260ff851660208201526001600160601b038416604082015260806060820152816080820152818360a0830137600081830160a090810191909152601f909201601f19160101949350505050565b8981526001600160a01b038916602082015261012060408201819052600090613eb28382018b6135e1565b90508281036060840152613ec6818a613625565b90508281036080840152613eda8189613655565b905082810360a0840152613eee8188613655565b90508560c08401528460e0840152828103610100840152613f0f818561356b565b9c9b505050505050505050505050565b600060208284031215613f3157600080fd5b815167ffffffffffffffff811115613f4857600080fd5b8201601f81018413613f5957600080fd5b8051613f6761395582613a01565b818152856020838501011115613f7c57600080fd5b613f8d82602083016020860161353b565b95945050505050565b60008219821115613fa957613fa9613e06565b500190565b600082821015613fc057613fc0613e06565b500390565b60018060a01b038616815284602082015260a060408201526000613fec60a083018661356b565b8281036060840152613df3818661356b565b60006020828403121561401057600080fd5b815180151581146130bf57600080fdfe476f7665726e6f72427261766f3a3a696e697469616c697a653a20696e76616ca2646970667358221220dc11b574eac905cff990ecb6052bdb702d1922e8f7a3c8bbf2411d60040e7e3f64736f6c634300080a0033",
  "devdoc": {
    "kind": "dev",
    "methods": {
      "_acceptAdmin()": {
        "details": "Admin function for pending admin to accept role and update admin"
      },
      "_initiate(address)": {
        "details": "Admin only. Sets initial proposal id which initiates the contract, ensuring a continuous proposal id count",
        "params": {
          "governorAlpha": "The address for the Governor to continue the proposal id count from"
        }
      },
      "_setPendingAdmin(address)": {
        "details": "Admin function to begin change of admin. The newPendingAdmin must call `_acceptAdmin` to finalize the transfer.",
        "params": {
          "newPendingAdmin": "New pending admin."
        }
      },
      "_setProposalThreshold(uint256)": {
        "details": "newProposalThreshold must be greater than the hardcoded min",
        "params": {
          "newProposalThreshold": "new proposal threshold"
        }
      },
      "_setVotingDelay(uint256)": {
        "params": {
          "newVotingDelay": "new voting delay, in blocks"
        }
      },
      "_setVotingPeriod(uint256)": {
        "params": {
          "newVotingPeriod": "new voting period, in blocks"
        }
      },
      "_setWhitelistAccountExpiration(address,uint256)": {
        "params": {
          "account": "Account address to set whitelist expiration for",
          "expiration": "Expiration for account whitelist status as timestamp (if now < expiration, whitelisted)"
        }
      },
      "_setWhitelistGuardian(address)": {
        "params": {
          "account": "Account to set whitelistGuardian to (0x0 to remove whitelistGuardian)"
        }
      },
      "cancel(uint256)": {
        "params": {
          "proposalId": "The id of the proposal to cancel"
        }
      },
      "castVote(uint256,uint8)": {
        "params": {
          "proposalId": "The id of the proposal to vote on",
          "support": "The support value for the vote. 0=against, 1=for, 2=abstain"
        }
      },
      "castVoteBySig(uint256,uint8,uint8,bytes32,bytes32)": {
        "details": "External function that accepts EIP-712 signatures for voting on proposals."
      },
      "castVoteWithReason(uint256,uint8,string)": {
        "params": {
          "proposalId": "The id of the proposal to vote on",
          "reason": "The reason given for the vote by the voter",
          "support": "The support value for the vote. 0=against, 1=for, 2=abstain"
        }
      },
      "execute(uint256)": {
        "params": {
          "proposalId": "The id of the proposal to execute"
        }
      },
      "getActions(uint256)": {
        "params": {
          "proposalId": "the id of the proposal"
        },
        "returns": {
          "calldatas": "of the proposal actions",
          "signatures": "of the proposal actions",
          "targets": "of the proposal actions",
          "values": "of the proposal actions"
        }
      },
      "getReceipt(uint256,address)": {
        "params": {
          "proposalId": "the id of proposal",
          "voter": "The address of the voter"
        },
        "returns": {
          "_0": "The voting receipt"
        }
      },
      "initialize(address,address,uint256,uint256,uint256)": {
        "params": {
          "comp_": "The address of the COMP token",
          "proposalThreshold_": "The initial proposal threshold",
          "timelock_": "The address of the Timelock",
          "votingDelay_": "The initial voting delay",
          "votingPeriod_": "The initial voting period"
        }
      },
      "isWhitelisted(address)": {
        "params": {
          "account": "Account to check white list status of"
        },
        "returns": {
          "_0": "If the account is whitelisted"
        }
      },
      "propose(address[],uint256[],string[],bytes[],string)": {
        "params": {
          "calldatas": "Calldatas for proposal calls",
          "description": "String description of the proposal",
          "signatures": "Function signatures for proposal calls",
          "targets": "Target addresses for proposal calls",
          "values": "Eth values for proposal calls"
        },
        "returns": {
          "_0": "Proposal id of new proposal"
        }
      },
      "queue(uint256)": {
        "params": {
          "proposalId": "The id of the proposal to queue"
        }
      },
      "state(uint256)": {
        "params": {
          "proposalId": "The id of the proposal"
        },
        "returns": {
          "_0": "Proposal state"
        }
      }
    },
    "version": 1
  },
  "userdoc": {
    "events": {
      "NewAdmin(address,address)": {
        "notice": "Emitted when pendingAdmin is accepted, which means admin is updated"
      },
      "NewImplementation(address,address)": {
        "notice": "Emitted when implementation is changed"
      },
      "NewPendingAdmin(address,address)": {
        "notice": "Emitted when pendingAdmin is changed"
      },
      "ProposalCanceled(uint256)": {
        "notice": "An event emitted when a proposal has been canceled"
      },
      "ProposalCreated(uint256,address,address[],uint256[],string[],bytes[],uint256,uint256,string)": {
        "notice": "An event emitted when a new proposal is created"
      },
      "ProposalExecuted(uint256)": {
        "notice": "An event emitted when a proposal has been executed in the Timelock"
      },
      "ProposalQueued(uint256,uint256)": {
        "notice": "An event emitted when a proposal has been queued in the Timelock"
      },
      "ProposalThresholdSet(uint256,uint256)": {
        "notice": "Emitted when proposal threshold is set"
      },
      "VoteCast(address,uint256,uint8,uint256,string)": {
        "notice": "An event emitted when a vote has been cast on a proposal"
      },
      "VotingDelaySet(uint256,uint256)": {
        "notice": "An event emitted when the voting delay is set"
      },
      "VotingPeriodSet(uint256,uint256)": {
        "notice": "An event emitted when the voting period is set"
      },
      "WhitelistAccountExpirationSet(address,uint256)": {
        "notice": "Emitted when whitelist account expiration is set"
      },
      "WhitelistGuardianSet(address,address)": {
        "notice": "Emitted when the whitelistGuardian is set"
      }
    },
    "kind": "user",
    "methods": {
      "BALLOT_TYPEHASH()": {
        "notice": "The EIP-712 typehash for the ballot struct used by the contract"
      },
      "DOMAIN_TYPEHASH()": {
        "notice": "The EIP-712 typehash for the contract's domain"
      },
      "MAX_PROPOSAL_THRESHOLD()": {
        "notice": "The maximum setable proposal threshold"
      },
      "MAX_VOTING_DELAY()": {
        "notice": "The max setable voting delay"
      },
      "MAX_VOTING_PERIOD()": {
        "notice": "The max setable voting period"
      },
      "MIN_PROPOSAL_THRESHOLD()": {
        "notice": "The minimum setable proposal threshold"
      },
      "MIN_VOTING_DELAY()": {
        "notice": "The min setable voting delay"
      },
      "MIN_VOTING_PERIOD()": {
        "notice": "The minimum setable voting period"
      },
      "_acceptAdmin()": {
        "notice": "Accepts transfer of admin rights. msg.sender must be pendingAdmin"
      },
      "_initiate(address)": {
        "notice": "Initiate the GovernorBravo contract"
      },
      "_setPendingAdmin(address)": {
        "notice": "Begins transfer of admin rights. The newPendingAdmin must call `_acceptAdmin` to finalize the transfer."
      },
      "_setProposalThreshold(uint256)": {
        "notice": "Admin function for setting the proposal threshold"
      },
      "_setVotingDelay(uint256)": {
        "notice": "Admin function for setting the voting delay"
      },
      "_setVotingPeriod(uint256)": {
        "notice": "Admin function for setting the voting period"
      },
      "_setWhitelistAccountExpiration(address,uint256)": {
        "notice": "Admin function for setting the whitelist expiration as a timestamp for an account. Whitelist status allows accounts to propose without meeting threshold"
      },
      "_setWhitelistGuardian(address)": {
        "notice": "Admin function for setting the whitelistGuardian. WhitelistGuardian can cancel proposals from whitelisted addresses"
      },
      "admin()": {
        "notice": "Administrator for this contract"
      },
      "cancel(uint256)": {
        "notice": "Cancels a proposal only if sender is the proposer, or proposer delegates dropped below proposal threshold"
      },
      "castVote(uint256,uint8)": {
        "notice": "Cast a vote for a proposal"
      },
      "castVoteBySig(uint256,uint8,uint8,bytes32,bytes32)": {
        "notice": "Cast a vote for a proposal by signature"
      },
      "castVoteWithReason(uint256,uint8,string)": {
        "notice": "Cast a vote for a proposal with a reason"
      },
      "comp()": {
        "notice": "The address of the Compound governance token"
      },
      "execute(uint256)": {
        "notice": "Executes a queued proposal if eta has passed"
      },
      "getActions(uint256)": {
        "notice": "Gets actions of a proposal"
      },
      "getReceipt(uint256,address)": {
        "notice": "Gets the receipt for a voter on a given proposal"
      },
      "implementation()": {
        "notice": "Active brains of Governor"
      },
      "initialProposalId()": {
        "notice": "Initial proposal id set at become"
      },
      "initialize(address,address,uint256,uint256,uint256)": {
        "notice": "Used to initialize the contract during delegator constructor"
      },
      "isWhitelisted(address)": {
        "notice": "View function which returns if an account is whitelisted"
      },
      "latestProposalIds(address)": {
        "notice": "The latest proposal for each proposer"
      },
      "name()": {
        "notice": "The name of this contract"
      },
      "pendingAdmin()": {
        "notice": "Pending administrator for this contract"
      },
      "proposalCount()": {
        "notice": "The total number of proposals"
      },
      "proposalMaxOperations()": {
        "notice": "The maximum number of actions that can be included in a proposal"
      },
      "proposalThreshold()": {
        "notice": "The number of votes required in order for a voter to become a proposer"
      },
      "proposals(uint256)": {
        "notice": "The official record of all proposals ever proposed"
      },
      "propose(address[],uint256[],string[],bytes[],string)": {
        "notice": "Function used to propose a new proposal. Sender must have delegates above the proposal threshold"
      },
      "queue(uint256)": {
        "notice": "Queues a proposal of state succeeded"
      },
      "quorumVotes()": {
        "notice": "The number of votes in support of a proposal required in order for a quorum to be reached and for a vote to succeed"
      },
      "state(uint256)": {
        "notice": "Gets the state of a proposal"
      },
      "timelock()": {
        "notice": "The address of the Compound Protocol Timelock"
      },
      "votingDelay()": {
        "notice": "The delay before voting on a proposal may take place, once proposed, in blocks"
      },
      "votingPeriod()": {
        "notice": "The duration of voting on a proposal, in blocks"
      },
      "whitelistAccountExpirations(address)": {
        "notice": "Stores the expiration of account whitelist status as a timestamp"
      },
      "whitelistGuardian()": {
        "notice": "Address which manages whitelisted proposals and whitelist accounts"
      }
    },
    "version": 1
  },
  "storageLayout": {
    "storage": [
      {
        "astId": 15434,
        "contract": "contracts/Governance/GovernorBravoDelegate.sol:GovernorBravoDelegate",
        "label": "admin",
        "offset": 0,
        "slot": "0",
        "type": "t_address"
      },
      {
        "astId": 15437,
        "contract": "contracts/Governance/GovernorBravoDelegate.sol:GovernorBravoDelegate",
        "label": "pendingAdmin",
        "offset": 0,
        "slot": "1",
        "type": "t_address"
      },
      {
        "astId": 15440,
        "contract": "contracts/Governance/GovernorBravoDelegate.sol:GovernorBravoDelegate",
        "label": "implementation",
        "offset": 0,
        "slot": "2",
        "type": "t_address"
      },
      {
        "astId": 15447,
        "contract": "contracts/Governance/GovernorBravoDelegate.sol:GovernorBravoDelegate",
        "label": "votingDelay",
        "offset": 0,
        "slot": "3",
        "type": "t_uint256"
      },
      {
        "astId": 15450,
        "contract": "contracts/Governance/GovernorBravoDelegate.sol:GovernorBravoDelegate",
        "label": "votingPeriod",
        "offset": 0,
        "slot": "4",
        "type": "t_uint256"
      },
      {
        "astId": 15453,
        "contract": "contracts/Governance/GovernorBravoDelegate.sol:GovernorBravoDelegate",
        "label": "proposalThreshold",
        "offset": 0,
        "slot": "5",
        "type": "t_uint256"
      },
      {
        "astId": 15456,
        "contract": "contracts/Governance/GovernorBravoDelegate.sol:GovernorBravoDelegate",
        "label": "initialProposalId",
        "offset": 0,
        "slot": "6",
        "type": "t_uint256"
      },
      {
        "astId": 15459,
        "contract": "contracts/Governance/GovernorBravoDelegate.sol:GovernorBravoDelegate",
        "label": "proposalCount",
        "offset": 0,
        "slot": "7",
        "type": "t_uint256"
      },
      {
        "astId": 15463,
        "contract": "contracts/Governance/GovernorBravoDelegate.sol:GovernorBravoDelegate",
        "label": "timelock",
        "offset": 0,
        "slot": "8",
        "type": "t_contract(TimelockInterface)15626"
      },
      {
        "astId": 15467,
        "contract": "contracts/Governance/GovernorBravoDelegate.sol:GovernorBravoDelegate",
        "label": "comp",
        "offset": 0,
        "slot": "9",
        "type": "t_contract(CompInterface)15636"
      },
      {
        "astId": 15473,
        "contract": "contracts/Governance/GovernorBravoDelegate.sol:GovernorBravoDelegate",
        "label": "proposals",
        "offset": 0,
        "slot": "10",
        "type": "t_mapping(t_uint256,t_struct(Proposal)15531_storage)"
      },
      {
        "astId": 15478,
        "contract": "contracts/Governance/GovernorBravoDelegate.sol:GovernorBravoDelegate",
        "label": "latestProposalIds",
        "offset": 0,
        "slot": "11",
        "type": "t_mapping(t_address,t_uint256)"
      },
      {
        "astId": 15558,
        "contract": "contracts/Governance/GovernorBravoDelegate.sol:GovernorBravoDelegate",
        "label": "whitelistAccountExpirations",
        "offset": 0,
        "slot": "12",
        "type": "t_mapping(t_address,t_uint256)"
      },
      {
        "astId": 15561,
        "contract": "contracts/Governance/GovernorBravoDelegate.sol:GovernorBravoDelegate",
        "label": "whitelistGuardian",
        "offset": 0,
        "slot": "13",
        "type": "t_address"
      }
    ],
    "types": {
      "t_address": {
        "encoding": "inplace",
        "label": "address",
        "numberOfBytes": "20"
      },
      "t_array(t_address)dyn_storage": {
        "base": "t_address",
        "encoding": "dynamic_array",
        "label": "address[]",
        "numberOfBytes": "32"
      },
      "t_array(t_bytes_storage)dyn_storage": {
        "base": "t_bytes_storage",
        "encoding": "dynamic_array",
        "label": "bytes[]",
        "numberOfBytes": "32"
      },
      "t_array(t_string_storage)dyn_storage": {
        "base": "t_string_storage",
        "encoding": "dynamic_array",
        "label": "string[]",
        "numberOfBytes": "32"
      },
      "t_array(t_uint256)dyn_storage": {
        "base": "t_uint256",
        "encoding": "dynamic_array",
        "label": "uint256[]",
        "numberOfBytes": "32"
      },
      "t_bool": {
        "encoding": "inplace",
        "label": "bool",
        "numberOfBytes": "1"
      },
      "t_bytes_storage": {
        "encoding": "bytes",
        "label": "bytes",
        "numberOfBytes": "32"
      },
      "t_contract(CompInterface)15636": {
        "encoding": "inplace",
        "label": "contract CompInterface",
        "numberOfBytes": "20"
      },
      "t_contract(TimelockInterface)15626": {
        "encoding": "inplace",
        "label": "contract TimelockInterface",
        "numberOfBytes": "20"
      },
      "t_mapping(t_address,t_struct(Receipt)15541_storage)": {
        "encoding": "mapping",
        "key": "t_address",
        "label": "mapping(address => struct GovernorBravoDelegateStorageV1.Receipt)",
        "numberOfBytes": "32",
        "value": "t_struct(Receipt)15541_storage"
      },
      "t_mapping(t_address,t_uint256)": {
        "encoding": "mapping",
        "key": "t_address",
        "label": "mapping(address => uint256)",
        "numberOfBytes": "32",
        "value": "t_uint256"
      },
      "t_mapping(t_uint256,t_struct(Proposal)15531_storage)": {
        "encoding": "mapping",
        "key": "t_uint256",
        "label": "mapping(uint256 => struct GovernorBravoDelegateStorageV1.Proposal)",
        "numberOfBytes": "32",
        "value": "t_struct(Proposal)15531_storage"
      },
      "t_string_storage": {
        "encoding": "bytes",
        "label": "string",
        "numberOfBytes": "32"
      },
      "t_struct(Proposal)15531_storage": {
        "encoding": "inplace",
        "label": "struct GovernorBravoDelegateStorageV1.Proposal",
        "members": [
          {
            "astId": 15481,
            "contract": "contracts/Governance/GovernorBravoDelegate.sol:GovernorBravoDelegate",
            "label": "id",
            "offset": 0,
            "slot": "0",
            "type": "t_uint256"
          },
          {
            "astId": 15484,
            "contract": "contracts/Governance/GovernorBravoDelegate.sol:GovernorBravoDelegate",
            "label": "proposer",
            "offset": 0,
            "slot": "1",
            "type": "t_address"
          },
          {
            "astId": 15487,
            "contract": "contracts/Governance/GovernorBravoDelegate.sol:GovernorBravoDelegate",
            "label": "eta",
            "offset": 0,
            "slot": "2",
            "type": "t_uint256"
          },
          {
            "astId": 15491,
            "contract": "contracts/Governance/GovernorBravoDelegate.sol:GovernorBravoDelegate",
            "label": "targets",
            "offset": 0,
            "slot": "3",
            "type": "t_array(t_address)dyn_storage"
          },
          {
            "astId": 15495,
            "contract": "contracts/Governance/GovernorBravoDelegate.sol:GovernorBravoDelegate",
            "label": "values",
            "offset": 0,
            "slot": "4",
            "type": "t_array(t_uint256)dyn_storage"
          },
          {
            "astId": 15499,
            "contract": "contracts/Governance/GovernorBravoDelegate.sol:GovernorBravoDelegate",
            "label": "signatures",
            "offset": 0,
            "slot": "5",
            "type": "t_array(t_string_storage)dyn_storage"
          },
          {
            "astId": 15503,
            "contract": "contracts/Governance/GovernorBravoDelegate.sol:GovernorBravoDelegate",
            "label": "calldatas",
            "offset": 0,
            "slot": "6",
            "type": "t_array(t_bytes_storage)dyn_storage"
          },
          {
            "astId": 15506,
            "contract": "contracts/Governance/GovernorBravoDelegate.sol:GovernorBravoDelegate",
            "label": "startBlock",
            "offset": 0,
            "slot": "7",
            "type": "t_uint256"
          },
          {
            "astId": 15509,
            "contract": "contracts/Governance/GovernorBravoDelegate.sol:GovernorBravoDelegate",
            "label": "endBlock",
            "offset": 0,
            "slot": "8",
            "type": "t_uint256"
          },
          {
            "astId": 15512,
            "contract": "contracts/Governance/GovernorBravoDelegate.sol:GovernorBravoDelegate",
            "label": "forVotes",
            "offset": 0,
            "slot": "9",
            "type": "t_uint256"
          },
          {
            "astId": 15515,
            "contract": "contracts/Governance/GovernorBravoDelegate.sol:GovernorBravoDelegate",
            "label": "againstVotes",
            "offset": 0,
            "slot": "10",
            "type": "t_uint256"
          },
          {
            "astId": 15518,
            "contract": "contracts/Governance/GovernorBravoDelegate.sol:GovernorBravoDelegate",
            "label": "abstainVotes",
            "offset": 0,
            "slot": "11",
            "type": "t_uint256"
          },
          {
            "astId": 15521,
            "contract": "contracts/Governance/GovernorBravoDelegate.sol:GovernorBravoDelegate",
            "label": "canceled",
            "offset": 0,
            "slot": "12",
            "type": "t_bool"
          },
          {
            "astId": 15524,
            "contract": "contracts/Governance/GovernorBravoDelegate.sol:GovernorBravoDelegate",
            "label": "executed",
            "offset": 1,
            "slot": "12",
            "type": "t_bool"
          },
          {
            "astId": 15530,
            "contract": "contracts/Governance/GovernorBravoDelegate.sol:GovernorBravoDelegate",
            "label": "receipts",
            "offset": 0,
            "slot": "13",
            "type": "t_mapping(t_address,t_struct(Receipt)15541_storage)"
          }
        ],
        "numberOfBytes": "448"
      },
      "t_struct(Receipt)15541_storage": {
        "encoding": "inplace",
        "label": "struct GovernorBravoDelegateStorageV1.Receipt",
        "members": [
          {
            "astId": 15534,
            "contract": "contracts/Governance/GovernorBravoDelegate.sol:GovernorBravoDelegate",
            "label": "hasVoted",
            "offset": 0,
            "slot": "0",
            "type": "t_bool"
          },
          {
            "astId": 15537,
            "contract": "contracts/Governance/GovernorBravoDelegate.sol:GovernorBravoDelegate",
            "label": "support",
            "offset": 1,
            "slot": "0",
            "type": "t_uint8"
          },
          {
            "astId": 15540,
            "contract": "contracts/Governance/GovernorBravoDelegate.sol:GovernorBravoDelegate",
            "label": "votes",
            "offset": 2,
            "slot": "0",
            "type": "t_uint96"
          }
        ],
        "numberOfBytes": "32"
      },
      "t_uint256": {
        "encoding": "inplace",
        "label": "uint256",
        "numberOfBytes": "32"
      },
      "t_uint8": {
        "encoding": "inplace",
        "label": "uint8",
        "numberOfBytes": "1"
      },
      "t_uint96": {
        "encoding": "inplace",
        "label": "uint96",
        "numberOfBytes": "12"
      }
    }
  }
}